:100C7A00000000000000070F1C38383870707070D0
:100C8A0070707070703838181C0F07000000000070
:100C9A00000000000000E0F0381C1C1C0E0E0E0EB6
:100CAA000E0E0E0E0E1C1C1C38F0E0000000000098
:100CBA00000000000000000001031F1F01010101E4
:100CCA00010101010101010101010100000000000F
:100CDA00000000000000C0C0C0C0C0C0C0C0C0C08A
:100CEA00C0C0C0C0C0C0C0C0C0C0C00000000000BA
:100CFA0000000000000003070E0E1C1C1C1C000054
:100D0A0000000103070E1E1C383F3F0000000000D0
:100D1A00000000000000E0F0381C1C1C1C1C3C38C1
:100D2A0070E0C0800000000000FCFC000000000031
:100D3A00000000000000070F1C1C383800000001EA
:100D4A0001000000707070383C1F070000000000AE
:100D5A00000000000000C0F070383838383870E001
:100D6A00F0783C1C1C1C1C3C38F0C0000000000041
:100D7A00000000000000000000010303060E0C1C26
:100D8A001830707F7F0000000000000000000000A3
:100D9A0000000000000070F0F0F0F07070707070E9
:100DAA00707070FEFE70707070707000000000004D
:100DBA000000000000001F1F1818183830333F3C8D
:100DCA003000000000707070383C1F0700000000FF
:100DDA00000000000000F8F80000000000E0F078D1
:100DEA00381C1C1C1C1C1C183870F0C000000000A9
:100DFA0000000000000001070E0C1C1C38393B3EA5
:100E0A003C3838383838181C0E0703000000000038
:100E1A00000000000000F0F81C0E0E0000F0F83C84
:100E2A001C0E0E0E0E0E0E1C3CF8F0000000000008
:100E3A000000000000003F3F00000000000000002A
:100E4A00000000010101030303070700000000007E
:100E5A00000000000000FCFC1C3C38383870707040
:100E6A00E0E0E0C0C0C08080800000000000000018
:100E7A00000000000000070F1C38383838381C0FF3
:100E8A000F3C3870707070783C1F0700000000003B
:100E9A00000000000000C0E070383838383870E0D0
:100EAA00E078381C1C1C1C3C78F0C00000000000D4
:100EBA00000000000000070F1E1C38383838383C84
:100ECA001C0F0700000038381C0F07000000000044
:100EDA00000000000000E0F0381C0C0E0E0E0E1E82
:100EEA003EEECE0E0E1C1C3878F0C000000000004A
:100EFA0000000000000000000000000000000000E8
:100F0A0000000000000000001C1C1C000000000083
:100F1A0000000000000000000000000000000000C7
:100F2A0000000000000000000000000000000000B7
:0400030075BBFF22A8
:10093700E4F597E5875410751D00F51E6410451DF5
:100947007008758720121144D20E12000343B88035
:10095700C2001216931216803000FDC200E55364E0
:10096700016003020A337A0C7B7AE54475F00A8446
:1009770085F03A7D0B7FF01212A07A0C7B7AE5485E
:1009870075F00A8485F03A7D0C7F021212A07A0C6A
:100997007B7AE54675F00A8485F03A7D127F30123E
:1009A70012A07A0C7B7AE54C75F00A8485F03A7DC3
:1009B700127F421212A07A0C7B7AE54A75F00A84FC
:1009C70085F03A7D187F701212A07A0C7B7AE55079
:1009D70075F00A8485F03A7D187F821212A07A0C8E
:1009E7007B7AE54E75F00A8485F03A7D1E7FB0125A
:1009F70012A07A0C7B7AE55275F00A8485F03A7D6D
:100A07001E7FC21212A07A0C7B7AE54475F00A8425
:100A1700F53A7D0B7FEC1212A07A0C7B7AE54875CC
:100A2700F00A84F53A7D0B7FFE1212A0E5536402AB
:100A37006003020AFE7A0C7B7AE54675F00A84F5B4
:100A47003A7D127F2C1212A07A0C7B7AE54C75F056
:100A57000A84F53A7D127F3E1212A07A0C7B7AE562
:100A67005075F00A84F53A7D187F7E1212A07A0C31
:100A77007B7AE54A75F00A84F53A7D187F6C121285
:100A8700A07A0C7B7AE54E75F00A84F53A7D1E7FD5
:100A9700AC1212A07A0C7B7AE55275F00A84F53A0B
:100AA7007D1E7FBE1212A07A0C7B7AE54375F00A91
:100AB7008485F03A7D0B7FEA1212A07A0C7B7AE5E7
:100AC7004775F00A8485F03A7D0B7FFC1212A07AF5
:100AD7000C7B7AE54575F00A8485F03A7D127F2A0A
:100AE7001212A07A0C7B7AE54B75F00A8485F03AEE
:100AF7007D127F3C1212A0E55364036003020BC909
:100B07007A0C7B7AE54975F00A8485F03A7D187F7F
:100B17006A1212A07A0C7B7AE54F75F00A8485F089
:100B27003A7D187F7C1212A07A0C7B7AE54D75F01E
:100B37000A8485F03A7D1E7FAA1212A07A0C7B7A6E
:100B4700E55175F00A8485F03A7D1E7FBC1212A02C
:100B57007A0C7B7AE54375F00A84F53A7D0B7FE8DA
:100B67001212A07A0C7B7AE54775F00A84F53A7D74
:100B77000B7FFA1212A07A0C7B7AE54575F00A848E
:100B8700F53A7D127F281212A07A0C7B7AE54B7515
:100B9700F00A84F53A7D127F3A1212A07A0C7B7A1A
:100BA700E54975F00A84F53A7D187F681212A07A34
:100BB7000C7B7AE54F75F00A84F53A7D187F7A1237
:100BC70012A0E5536404600302095F7A0C7B7AE59F
:100BD7004D75F00A84F53A7D1E7FA81212A07A0C93
:100BE7007B7AE55175F00A84F53A7D1E7FBA1212B9
:100BF700A07A0C7B7A753A0A7D0B7FEE1212A07AE7
:100C07000C7B7A753A0A7D0CE4FF1212A07A0C7BF2
:100C17007A753A0A7D127F2E1212A07A0C7B7A75AA
:100C27003A0A7D127F401212A07A0C7B7A753A0A33
:100C37007D187F6E1212A07A0C7B7A753A0A7D189E
:100C47007F801212A07A0C7B7A753A0A7D1E7FAEDE
:100C57001212A07A0C7B7A753A0A7D1E7FC0121297
:100C6700A07F461216527F1012163A7F2612163AA6
:030C770002095F10
:1016930075BBFF438901758C3C758AB0D2AFD2A963
:0116A3002224
:03000B00020F3AA7
:0D0F3A00C0E0C0F0C083C082C0D075D008F8
:100F4700759700758C3C758AB005280529055312DD
:100F5700055EE528B40202C293E528640460030233
:100F67001049D293302A18054EE54EC394644005C4
:100F7700754E00054DE54DC394644003754D003033
:100F87002B180552E552C39464400575520005516C
:100F9700E551C394644003755100302E18054AE5A6
:100FA7004AC394644005754A000549E549C39464FA
:100FB7004003754900302F180550E550C39464402D
:100FC70005755000054FE54FC394644003754F0006
:100FD700301A180546E546C3946440057546000572
:100FE70045E545C394644003754500301B18054C1F
:100FF700E54CC394644005754C00054BE54BC39421
:10100700644003754B00301E180544E544C39464DF
:1010170040057544000543E543C3946440037543A5
:1010270000301F180548E548C3946440057548001B
:101037000547E547C39464400375470075280012C8
:10104700106FE529B41402C2C3E529B42805D2C339
:0D105700752900D200E553B405037553015F
:0B106400D0D0D082D083D0F0D0E0329A
:10161600C2A1E4FE7801EF08800123D8FDFFC2C90C
:0D1626001392A6D2C90EBE08EBD2A1C2A13C
:011633002294
:0C000E00015C00015B00015A0001590078
:10055E0020C42130811E20301B203F18203B15D295
:10056E00B0D297D230D23FC228D23B303304C22908
:10057E008002D22920C402D2B030C404C230C23F9D
:10058E00309202C23120920A308107203104C22AF1
:10059E00D23130B102C23220B10A3081072032048A
:1005AE00C22BD23220A75D20810920A706D2B0D25D
:1005BE0097C23B20802330812030821D30971A2035
:1005CE00A71720301420C404D2B08002C2B0D29734
:1005DE00E4F55CC229C228C23B2082283081253036
:1005EE00802230B01F20A71C203319D2B0C297E44E
:1005FE00F55CC229D228D22AD22BF54EF54DF552F2
:10060E00F551C23B20A52130811E20341B203E18FF
:10061E00203A15D294D295D234D23EC22CD23A3050
:10062E003704C22D8002D22D20A502D29430A5040B
:10063E00C234C23E30C202C23520C20A3081072007
:10064E003504C22ED23530B702C23620B70A3081F9
:10065E0007203604C22FD23620A05D20810920A0AB
:10066E0006D294D295C23A20802330812030821D4A
:10067E0030951A20A01720341420A504D29480029D
:10068E00C294D295E4F55BC22DC22CC23A208228C8
:10069E0030812530802230941F20A01C203719D2A3
:1006AE0094C295E4F55BC22DD22CD22ED22FF54AF0
:1006BE00F549F550F54FC23A20C12130811E202058
:1006CE001B203D18203915D2A3D2A4D220D239D264
:1006DE003DC218302304C2198002D21930C104C29F
:1006EE0020C23D20C102D2A3309602C22120960A1A
:1006FE00308107202104C21AD221308502C2222065
:10070E00850A308107202204C21BD22220875F2057
:10071E00810B208708D2A3D2A4C239C22020802305
:10072E0030812030821D30A41A20871720201420FB
:10073E00C104D2A38002C2A3D2A4E4F55AC219C244
:10074E0018C23920822830812530802230A31F2004
:10075E00871C202319D2A3C2A4E4F55AC219D218B9
:10076E00C239D21AD21BF546F545F54CF54B20A2EF
:10077E002130811E20241B203C18203815D290D207
:10078E0091D224D238D23CC21C302704C21D800222
:10079E00D21D30A204C224C23C20A202D29030CA82
:1007AE0002C22520CA0A308107202504C21ED22586
:1007BE00308402C22620840A308107202604C21FFC
:1007CE00D22620865F20810B208608D290D291C23D
:1007DE0038C22420802330812030821D30911A208F
:1007EE00861720241420A204D2908002C290D291A7
:1007FE00E4F559C21DC21CC2382082283081253032
:10080E00802230901F20861C202719D290C291E49E
:10081E00F559C21DD21CC238D21ED21FF544F54363
:10082E00F548F54720832820A725C22AC22BD2B02F
:10083E00D297E4F54EF54DC229C228F55CF552F576
:10084E0051C230C231C232C233C23BC23FD20E207D
:10085E00832820A025C22EC22FD294D295E4F54A29
:10086E00F549C22DC22CF55BF550F54FC234C23599
:10087E00C236C237C23AC23ED20E20832820872506
:10088E00C21AC21BD2A3D2A4E4F546F545C219C2C0
:10089E0018F55AF54CF54BC220C221C222C239C2FC
:1008AE0023C23DD20E208328208625C21EC21FD20F
:1008BE0090D291E4F544F543C21DC21CF559F5489A
:1008CE00F547C224C225C226C227C238C23CD20E68
:1008DE0020C00E20270BD291D227C21DC21CE4F5D8
:1008EE005930C002C22720C60E20230BD2A4D22319
:1008FE00C219C218E4F55A30C602C22320C80E200F
:10090E00370BD295D237C22DC22CE4F55B30C8021C
:10091E00C23720C50E20330BD297D233C229C2283C
:09092E00E4F55C30C502C233227D
:10106F00302916D23F055CE55CB4140DD228C22995
:10107F00D214E4F55CD2B0C29720331930141605A0
:10108F005CE55CB4030FC228C229E4F55CD2B0D290
:10109F0097C23FC214302D16D23E055BE55BB414E8
:1010AF000DD22CC22DD213E4F55BD294C29520370A
:1010BF0019301316055BE55BB4030FC22CC22DE488
:1010CF00F55BD294D295C23EC213301916D23D05AC
:1010DF005AE55AB4140DD218C219D212E4F55AD2E5
:1010EF00A3C2A4202319301216055AE55AB4030FD0
:1010FF00C218C219E4F55AD2A3D2A4C23DC212300B
:10110F001D16D23C0559E559B4140DD21CC21DD27F
:10111F0011E4F559D290C2912027193011160559B3
:10112F00E559B4030FC21CC21DE4F559D290D291F8
:05113F00C23CC21122B8
:10001E000000000000000101010303030707070EA3
:10002E000E0E0C1F1F1C38383878700000000000B0
:10003E00000000000000C0C0C0E0E06070707038CA
:10004E00383818FCFC1C0E0E0E0F070000000000C6
:10005E000000000000003F3F383838383838383F4D
:10006E003F38383838383838383F3F000000000005
:10007E00000000000000E0F0381C1C1C1C1C38F0B6
:10008E00F03C1C0E0E0E0E1E3CF8E00000000000B0
:10009E000000000000003F3F0101010101010101CC
:1000AE000101010101010101010101000000000037
:1000BE00000000000000FEFEC0C0C0C0C0C0C0C036
:1000CE00C0C0C0C0C0C0C0C0C0C0C00000000000E2
:1000DE0000000008070404040404040404040404D7
:1000EE00040404040404040404040404040C0C00B6
:1000FE0000000000FF00000000007F0000001F1045
:10010E0010101010101F1010100000000000000042
:10011E0000000000FF000000060FF0000008FC08C1
:10012E000808080808F8080800000000030000008E
:10013E0000000010F8303030303030303030303099
:10014E00303030303030303030303030F0E0400051
:10015E00000000000001010101010101013F00004A
:10016E0000000000010103060C18000000001F0033
:10017E00000000000080C0808080808080FF010031
:10018E000040F0C080000000010001071CE00000EC
:10019E00000080C0808080FF8080808080FF00C053
:1001AE00808080808183878E1870C0800000000060
:1001BE00000000000040E0F00000000018FC00000D
:1001CE00002070E0C0800000000000000000000071
:1001DE0000000203030606040F0C08181F234343F6
:1001EE0003033F030303030303030303030000009E
:1001FE000000008000003038C7000020F00103022C
:10020E000438F800000000003060C08003061800BB
:10021E00000020180C0E0400FF0060E0C0800040BB
:10022E004041212133171E0C1E3763C10000000010
:10023E00000000000000183CC000C070381858E0E4
:10024E00C0C0808000000000000080E07E3800000A
:10025E00000000070706040C0F081810203F42028A
:10026E0002023F0202020202020203070200000023
:10027E00000000000008247687030240E00002031D
:10028E003F22F202020202021262820518301000B0
:10029E000000040706060CFF08181A13333363FF19
:1002AE0003030303037F030303030303E03F07007A
:1002BE0000000000000018FC00000080000018E0A4
:1002CE00000000081CE000000000000000FCF80028
:1002DE000000000806070302000030181C0C09017C
:1002EE0001010202066E1C0C0C0C0C0C0C0401001D
:1002FE00000000003F303030303333B3B3B333330C
:10030E0033323232323626050C08183060C0000007
:10031E0000000000F030202323232321212121215E
:10032E00313131313323030380406030311000000E
:10033E00000000181810101090101010101010104F
:10034E00101010101010101010101010F07020005F
:10035E0000000000080C07030301000000017F03EA
:10036E000303030303030303030303030301000057
:10037E00000000000000000080001F000000800050
:10038E000F000000000008103061DF8E80000000BA
:10039E0000000006070606060606FF060606061EEF
:1003AE00E28283838181818098E0800000000000DA
:1003BE0000000000C0603030081CE00000000000AB
:1003CE000000000000808084C46464341C0C0400AF
:1003DE0000000000000000010101030307050909E8
:1003EE0011210101010101010101010101010100C0
:1003FE0000004070E0C0C0808004028282010101D2
:10040E000000000000000000008081838C986000D6
:10041E000000004060303018181800000101018300
:10042E0083C6466C2C38183C66C381000000000061
:10043E000000000000000040F0E0C0C0808000001E
:10044E0000000000000000000000C0F07E38000038
:10045E0000000000000000011F0101010101010167
:10046E00010101010101010101031F000000000053
:10047E00000000000000C0C0C0C0C0C0C0C0C0C0EE
:10048E00C0C0C0C0C0C0C0C0C0E0FC0000000000C2
:10049E00000000000000070C183030383800000053
:1004AE000000000103060C18303F3F000000000062
:1004BE00000000000000F03C1C0E0E0E0E0E1C186C
:1004CE003060C080000606060EFCFC000000000036
:1004DE00000000000000071C383838380000000308
:1004EE000000000000383838381C070000000000FB
:1004FE00000000000000E078381C1C1C1C3870E066
:10050E00781C0C0E0E0E0E0C1C38E00000000000C5
:10051E00000000000000000000010303060E0C1C8A
:10052E001830707F7F000000000000000000000007
:10053E0000000000000070F0F0F0F070707070704D
:10054E00707070FEFE7070707070700000000000B1
:10166C00000000EFD39400400AE4FE0EBE3BFC00E9
:03167C001F80F0DC
:01167F002248
:10165200D2B2D2B3D2B6121616C2B400C2B20000CF
:0A166200D2B200D2B47F0102166C70
:061634003EF583E493FF84
:10163A00D2B2D2B3C2B6121616C2B400C2B20000F7
:08164A00D2B200D2B40000226C
:101144007F401216527F3012163A7F8712163A7F6A
:101154000712163A7F2712163A7F3212163A7FEF99
:1011640012163A7F2812163AE4FF12163A7F4412F6
:101174001652E4FF12163AE4FF12163A7FF01216E2
:101184003A7FB012163A7F0412163A7FF012163ADA
:10119400E4FF12163AE4FF12163AE4FF12163AE498
:1011A400FF12163A7F5D1216527F0712163A7F0716
:1011B40012163A7F4F1216527F5A1216527F01129C
:1011C400163A7F5B1216527F0512163A7F461216A4
:1011D40052E4FF12163AE4FF12163A7F58121652DE
:0F11E400E4FF12163A7F591216527F0402163A90
:021548008F2AE8
:10154A00E4F52BF52C7F46121652AF2C12163AE40C
:10155A00FF12163A7F42121652E4F52DF52EAF2AE3
:10156A0012163A052EE52E7002052DC394F0E52DCC
:10157A00940040EA052CE52C7002052BC39428E55B
:05158A002B940040C09D
:01158F002239
:021590008F18B2
:10159200E4F519F51A7F46121652AF1A12163A7F5F
:1015A2001B12163A7F42121652E4F51BF51CAF18B5
:1015B20012163A051CE51C7002051BC39432E51B8A
:1015C200940040EA051AE51A70020519C39428E549
:0515D20019940040C067
:0115D70022F1
:0214FF008F5408
:101501007555007556047F46121652AF5612163A9B
:101511007F0F12163A7F42121652E4F557F558AF73
:101521005412163A0558E55870020557C39432E52E
:1015310057940040EA0556E55670020555C39428B4
:06154100E555940040C0D6
:011547002281
:081341008F2A8D2B8A2C8B2DC5
:10134900E4F532F533F534F535F52E8F2FE52A24FA
:1013590004FFE433FEC3E52F9FE52E9E50727F46BE
:10136900121652AF2F12163AAF2B12163A7F4212AB
:101379001652E535AE347805C333CE33CED8F9F5F8
:10138900318E30E535AE347805C333CE33CED8F956
:101399002420FFE43EFEC3E5319FE5309E501EE563
:1013A900332531FFE5323530FEE52D2FF582E52C69
:1013B9001216340531E53170CA053080C60535E5A8
:1013C9003570020534052FE52F7082052E0213565C
:0113D90022F1
:0813DA008F2A8D2B8A2C8B2D2C
:1013E200E4F532F533F534F535F52E8F2FE52A2461
:1013F20002FFE433FEC3E52F9FE52E9E50727F4627
:10140200121652AF2F12163AAF2B12163A7F421211
:101412001652E535AE347805C333CE33CED8F9F55E
:10142200318E30E535AE347805C333CE33CED8F9BC
:101432002420FFE43EFEC3E5319FE5309E501EE5C9
:10144200332531FFE5323530FEE52D2FF582E52CCF
:101452001216340531E53170CA053080C60535E50E
:101462003570020534052FE52F7082052E0213EF29
:011472002257
:0812A0008F368D378A388B3937
:1012A800E53A75F040A485F03FF540E4F541F54294
:1012B800F53B85363CE5362402FFE433FEC3E53CC6
:1012C8009FE53B9E50727F46121652AF3C12163A6B
:1012D800AF3712163A7F42121652E542AE417805F0
:1012E800C333CE33CED8F9F53E8E3DE542AE4178D4
:1012F80005C333CE33CED8F92420FFE43EFEC3E540
:101308003E9FE53D9E501EE540253EFFE53F353DAD
:10131800FEE5392FF582E538121634053EE53E70B4
:10132800CA053D80C60542E54270020541053CE517
:081338003C7082053B0212BD6E
:01134000228A
:1016800075BBFF438910758D15758BA0D2AFD2AB9A
:03169000D28E22D5
:1011F3007F46121652E4FF12163AE4FF12163A7AA9
:10120300007BDE7D017F6B1213417A017B5E7D01E2
:101213007F701213417A017BDE7D017F75121341CA
:101223007A027B5E7D017F7A1213417A027BDE7D37
:10123300017F7F1213417A037B5E7D017F8412134A
:10124300417A037BDE7D017F891213417A007B1E85
:101253007D067F731213DA7A007B5E7D067F871229
:1012630013DA7A047B5E7D0B7FE11213DA7A047B57
:101273009E7D127F211213DA7A047BDE7D187F6153
:101283001213DA7A057B1E7D1E7FA11213DA7F46C5
:0D1293001216527F1012163A7F2602163AEC
:03001B000215D8F3
:1015D800C0E0C0F0C083C082C0D075D0107597003D
:1015E800758D15758BA0300E1AC28EC2ABE4FF1232
:1015F8001548E4FF1215481211F31211F3C20ED266
:0E16080000D28CD0D0D082D083D0F0D0E0328F
:0300000002147374
:0C147300787FE4F6D8FD75815E0214BAA3
:10147F00020937E493A3F8E493A34003F68001F243
:10148F0008DFF48029E493A3F85407240CC8C3336E
:10149F00C4540F4420C8834004F456800146F6DF3D
:1014AF00E4800B010204081020408090000EE47EBF
:1014BF00019360BCA3FF543F30E509541FFEE49332
:1014CF00A360010ECF54C025E060A840B8E493A3F9
:1014DF00FAE493A3F8E493A3C8C582C8CAC583CA24
:1014EF00F0A3C8C582C8CAC583CADFE9DEE780BEDC
:01001A0000E5
:00000001FF
