:1008A400000000000000070F1C38383870707070AA
:1008B40070707070703838181C0F0700000000004A
:1008C400000000000000E0F0381C1C1C0E0E0E0E90
:1008D4000E0E0E0E0E1C1C1C38F0E0000000000072
:1008E400000000000000000001031F1F01010101BE
:1008F40001010101010101010101010000000000E9
:10090400000000000000C0C0C0C0C0C0C0C0C0C063
:10091400C0C0C0C0C0C0C0C0C0C0C0000000000093
:1009240000000000000003070E0E1C1C1C1C00002D
:1009340000000103070E1E1C383F3F0000000000AA
:10094400000000000000E0F0381C1C1C1C1C3C389B
:1009540070E0C0800000000000FCFC00000000000B
:10096400000000000000070F1C1C383800000001C4
:1009740001000000707070383C1F07000000000088
:10098400000000000000C0F070383838383870E0DB
:10099400F0783C1C1C1C1C3C38F0C000000000001B
:1009A400000000000000000000010303060E0C1C00
:1009B4001830707F7F00000000000000000000007D
:1009C40000000000000070F0F0F0F07070707070C3
:1009D400707070FEFE707070707070000000000027
:1009E4000000000000001F1F1818183830333F3C67
:1009F4003000000000707070383C1F0700000000D9
:100A0400000000000000F8F80000000000E0F078AA
:100A1400381C1C1C1C1C1C183870F0C00000000082
:100A240000000000000001070E0C1C1C38393B3E7E
:100A34003C3838383838181C0E0703000000000012
:100A4400000000000000F0F81C0E0E0000F0F83C5E
:100A54001C0E0E0E0E0E0E1C3CF8F00000000000E2
:100A64000000000000003F3F000000000000000004
:100A74000000000101010303030707000000000058
:100A8400000000000000FCFC1C3C3838387070701A
:100A9400E0E0E0C0C0C080808000000000000000F2
:100AA400000000000000070F1C38383838381C0FCD
:100AB4000F3C3870707070783C1F07000000000015
:100AC400000000000000C0E070383838383870E0AA
:100AD400E078381C1C1C1C3C78F0C00000000000AE
:100AE400000000000000070F1E1C38383838383C5E
:100AF4001C0F0700000038381C0F0700000000001E
:100B0400000000000000E0F0381C0C0E0E0E0E1E5B
:100B14003EEECE0E0E1C1C3878F0C0000000000023
:100B240000000000000000000000000000000000C1
:100B340000000000000000001C1C1C00000000005D
:100B440000000000000000000000000000000000A1
:100B54000000000000000000000000000000000091
:0400030075BBFF22A8
:10055E00E4F597E5875410751800F51964104518E1
:10056E007008758720120D30D20E1211081200037A
:10057E0043B880C20012126D12125A3000FDC20032
:10058E00E51C6401600302065D7A087BA4E54075F4
:10059E00F00A8485F0367D0B7FF0120F357A087BDA
:1005AE00A4E54675F00A8485F0367D0C7F02120FA5
:1005BE00357A087BA4E54975F00A8485F0367D12FC
:1005CE007F30120F357A087BA4E54C75F00A8485CE
:1005DE00F0367D127F42120F357A087BA4E54F75F7
:1005EE00F00A8485F0367D187F70120F357A087BFD
:1005FE00A4E55275F00A8485F0367D187F82120FBD
:10060E00357A087BA4E55475F00A8485F0367D1E94
:10061E007FB0120F357A087BA4E55675F00A8485F3
:10062E00F0367D1E7FC2120F357A087BA4E5407529
:10063E00F00A84F5367D0B7FEC120F357A087BA419
:10064E00E54675F00A84F5367D0B7FFE120F35E513
:10065E001C640260030207287A087BA4E54975F042
:10066E000A84F5367D127F2C120F357A087BA4E5AD
:10067E004C75F00A84F5367D127F3E120F357A08DE
:10068E007BA4E54F75F00A84F5367D187F7E120F38
:10069E00357A087BA4E55275F00A84F5367D187F0D
:1006AE006C120F357A087BA4E55475F00A84F53682
:1006BE007D1E7FAC120F357A087BA4E55675F00AC5
:1006CE0084F5367D1E7FBE120F357A087BA4E53F7A
:1006DE0075F00A8485F0367D0B7FEA120F357A08A5
:1006EE007BA4E54575F00A8485F0367D0B7FFC1200
:1006FE000F357A087BA4E54875F00A8485F0367DBF
:10070E00127F2A120F357A087BA4E54B75F00A8406
:10071E0085F0367D127F3C120F35E51C64036003B5
:10072E000207F37A087BA4E54E75F00A8485F0364D
:10073E007D187F6A120F357A087BA4E55175F00A91
:10074E008485F0367D187F7C120F357A087BA4E500
:10075E005375F00A8485F0367D1E7FAA120F357A06
:10076E00087BA4E55575F00A8485F0367D1E7FBCA6
:10077E00120F357A087BA4E53F75F00A84F5367DB5
:10078E000B7FE8120F357A087BA4E54575F00A84D5
:10079E00F5367D0B7FFA120F357A087BA4E5487586
:1007AE00F00A84F5367D127F28120F357A087BA465
:1007BE00E54B75F00A84F5367D127F3A120F357AC5
:1007CE00087BA4E54E75F00A84F5367D187F681215
:1007DE000F357A087BA4E55175F00A84F5367D183D
:1007EE007F7A120F35E51C640460030205897A08CE
:1007FE007BA4E55375F00A84F5367D1E7FA8120F93
:10080E00357A087BA4E55575F00A84F5367D1E7F92
:10081E00BA120F357A087BA475360A7D0B7FEE125D
:10082E000F357A087BA475360A7D0CE4FF120F355E
:10083E007A087BA475360A7D127F2E120F357A0840
:10084E007BA475360A7D127F40120F357A087BA481
:10085E0075360A7D187F6E120F357A087BA47536B1
:10086E000A7D187F80120F357A087BA475360A7DB3
:10087E001E7FAE120F357A087BA475360A7D1E7F59
:10088E00C0120F357F4612122C7F101212147F26C3
:06089E001212140205898C
:10126D0075BBFF438901758C3C758AB0D2AFD2A98D
:01127D00224E
:03000B00020B6481
:0D0B6400C0E0C0F0C083C082C0D075D008D2
:100B7100759700758C3C758AB005240525051C12F6
:100B81000E8CE524B40202C2CBE5246404600302A6
:100B91000D08D2CB3018180540E540C394644005D8
:100BA100754000053FE53FC394644003753F003045
:100BB10019180546E546C394644005754600054588
:100BC100E545C394644003754500301A180549E5AD
:100BD10049C3946440057549000548E548C39464D8
:100BE1004003754800301B18054CE54CC394644024
:100BF10005754C00054BE54BC394644003754B00F0
:100C0100301C18054FE54FC394644005754F00052E
:100C11004EE54EC394644003754E00301D180552D5
:100C2100E552C3946440057552000551E551C394E2
:100C3100644003755100301E180554E554C3946493
:100C410040057554000553E553C39464400375533F
:100C510000301F180556E556C394644005755600CB
:100C61000555E555C39464400375550030101005D2
:100C710041E541C3942D4007754100C210D2903027
:100C810011100542E542C3942D4007754200C2117F
:100C9100D2913012100543E543C3942D40077543AB
:100CA10000C212D2923013100544E544C3942D4082
:100CB10007754400C213D2933014100547E547C3AA
:100CC100942D4007754700C214D294301510054A7F
:100CD100E54AC3942D4007754A00C215D2953016D6
:100CE10010054DE54DC3942D4007754D00C216D238
:100CF100963017100550E550C3942D4007755000EC
:100D0100C217D297752400E525B41402C2CAE5259D
:100D1100B42805D2CA752500D200E51CC39405404C
:040D210003751C0139
:0B0D2500D0D0D082D083D0F0D0E032DC
:1011F000C2A1E4FE7801EF08800123D8FDFFC2C937
:0D1200001392A6D2C90EBE08EBD2A1C2A166
:01120D0022BE
:10110800C218C219C21AC21BC21CC21DC21EC21FEB
:10111800C210C211C212C213C214C215C216C2171B
:10112800E4F53FF540F545F546F548F549F54BF545
:101138004CF54EF54FF551F552F553F554F555F577
:1011480056F541F542F543F544F547F54AF54DF5B1
:1011580050D290D291D292D293D294D295D296D2A2
:021168009722CC
:100E8C0020800DD218E4F53FF540D210F541C29008
:100E9C0020810DD219E4F545F546D211F542C291E7
:100EAC0020820DD21AE4F548F549D212F543C292CC
:100EBC0020830DD21BE4F54BF54CD213F544C293B1
:100ECC0020840DD21CE4F54EF54FD214F547C29494
:100EDC0020850DD21DE4F551F552D215F54AC29577
:100EEC0020860DD21EE4F553F554D216F54DC2965C
:100EFC0020870DD21FE4F555F556D217F550C29741
:100F0C0020A002C21820B502C21920A202C21A20C7
:100F1C00A302C21B20A402C21C20A502C21D20B722
:090F2C0002C21E20A702C21F220E
:10001E000000000000000101010303030707070EA3
:10002E000E0E0C1F1F1C38383878700000000000B0
:10003E00000000000000C0C0C0E0E06070707038CA
:10004E00383818FCFC1C0E0E0E0F070000000000C6
:10005E000000000000003F3F383838383838383F4D
:10006E003F38383838383838383F3F000000000005
:10007E00000000000000E0F0381C1C1C1C1C38F0B6
:10008E00F03C1C0E0E0E0E1E3CF8E00000000000B0
:10009E000000000000003F3F0101010101010101CC
:1000AE000101010101010101010101000000000037
:1000BE00000000000000FEFEC0C0C0C0C0C0C0C036
:1000CE00C0C0C0C0C0C0C0C0C0C0C00000000000E2
:1000DE0000000008070404040404040404040404D7
:1000EE00040404040404040404040404040C0C00B6
:1000FE0000000000FF00000000007F0000001F1045
:10010E0010101010101F1010100000000000000042
:10011E0000000000FF000000060FF0000008FC08C1
:10012E000808080808F8080800000000030000008E
:10013E0000000010F8303030303030303030303099
:10014E00303030303030303030303030F0E0400051
:10015E00000000000001010101010101013F00004A
:10016E0000000000010103060C18000000001F0033
:10017E00000000000080C0808080808080FF010031
:10018E000040F0C080000000010001071CE00000EC
:10019E00000080C0808080FF8080808080FF00C053
:1001AE00808080808183878E1870C0800000000060
:1001BE00000000000040E0F00000000018FC00000D
:1001CE00002070E0C0800000000000000000000071
:1001DE0000000203030606040F0C08181F234343F6
:1001EE0003033F030303030303030303030000009E
:1001FE000000008000003038C7000020F00103022C
:10020E000438F800000000003060C08003061800BB
:10021E00000020180C0E0400FF0060E0C0800040BB
:10022E004041212133171E0C1E3763C10000000010
:10023E00000000000000183CC000C070381858E0E4
:10024E00C0C0808000000000000080E07E3800000A
:10025E00000000070706040C0F081810203F42028A
:10026E0002023F0202020202020203070200000023
:10027E00000000000008247687030240E00002031D
:10028E003F22F202020202021262820518301000B0
:10029E000000040706060CFF08181A13333363FF19
:1002AE0003030303037F030303030303E03F07007A
:1002BE0000000000000018FC00000080000018E0A4
:1002CE00000000081CE000000000000000FCF80028
:1002DE000000000806070302000030181C0C09017C
:1002EE0001010202066E1C0C0C0C0C0C0C0401001D
:1002FE00000000003F303030303333B3B3B333330C
:10030E0033323232323626050C08183060C0000007
:10031E0000000000F030202323232321212121215E
:10032E00313131313323030380406030311000000E
:10033E00000000181810101090101010101010104F
:10034E00101010101010101010101010F07020005F
:10035E0000000000080C07030301000000017F03EA
:10036E000303030303030303030303030301000057
:10037E00000000000000000080001F000000800050
:10038E000F000000000008103061DF8E80000000BA
:10039E0000000006070606060606FF060606061EEF
:1003AE00E28283838181818098E0800000000000DA
:1003BE0000000000C0603030081CE00000000000AB
:1003CE000000000000808084C46464341C0C0400AF
:1003DE0000000000000000010101030307050909E8
:1003EE0011210101010101010101010101010100C0
:1003FE0000004070E0C0C0808004028282010101D2
:10040E000000000000000000008081838C986000D6
:10041E000000004060303018181800000101018300
:10042E0083C6466C2C38183C66C381000000000061
:10043E000000000000000040F0E0C0C0808000001E
:10044E0000000000000000000000C0F07E38000038
:10045E0000000000000000011F0101010101010167
:10046E00010101010101010101031F000000000053
:10047E00000000000000C0C0C0C0C0C0C0C0C0C0EE
:10048E00C0C0C0C0C0C0C0C0C0E0FC0000000000C2
:10049E00000000000000070C183030383800000053
:1004AE000000000103060C18303F3F000000000062
:1004BE00000000000000F03C1C0E0E0E0E0E1C186C
:1004CE003060C080000606060EFCFC000000000036
:1004DE00000000000000071C383838380000000308
:1004EE000000000000383838381C070000000000FB
:1004FE00000000000000E078381C1C1C1C3870E066
:10050E00781C0C0E0E0E0E0C1C38E00000000000C5
:10051E00000000000000000000010303060E0C1C8A
:10052E001830707F7F000000000000000000000007
:10053E0000000000000070F0F0F0F070707070704D
:10054E00707070FEFE7070707070700000000000B1
:10124600000000EFD39400400AE4FE0EBE3BFC0013
:031256001F80F006
:011259002272
:10122C00D2B2D2B3D2B61211F0C2B400C2B2000024
:0A123C00D2B200D2B47F01021246C4
:06120E003EF583E493FFAE
:10121400D2B2D2B3C2B61211F0C2B400C2B200004C
:08122400D2B200D2B400002296
:100D30007F4012122C7F301212147F871212147F00
:100D4000071212147F271212147F321212147FEF2F
:100D50001212147F28121214E4FF1212147F44128C
:100D6000122CE4FF121214E4FF1212147FF012127C
:100D7000147FB01212147F041212147FF012121496
:100D8000E4FF121214E4FF121214E4FF121214E42E
:100D9000FF1212147F5D12122C7F071212147F07AC
:100DA0001212147F4F12122C7F5A12122C7F011232
:100DB00012147F5B12122C7F051212147F4612123E
:100DC0002CE4FF121214E4FF1212147F5812122C9A
:0F0DD000E4FF1212147F5912122C7F0402121426
:02116A008F26CE
:10116C00E4F527F5287F4612122CAF28121214E44E
:10117C00FF1212147F4212122CE4F529F52AAF2625
:10118C00121214052AE52A70020529C394F0E529E8
:10119C00940040EA0528E52870020527C39428E549
:0511AC0027940040C083
:0111B100221B
:080FD6008F268D278A288B2944
:100FDE00E4F52EF52FF530F531F52A8F2BE5262485
:100FEE0004FFE433FEC3E52B9FE52A9E50727F4635
:100FFE0012122CAF2B121214AF271212147F4212A0
:10100E00122CE531AE307805C333CE33CED8F9F598
:10101E002D8E2CE531AE307805C333CE33CED8F9D4
:10102E002420FFE43EFEC3E52D9FE52C9E501EE5D9
:10103E002F252DFFE52E352CFEE5292FF582E528EF
:10104E0012120E052DE52D70CA052C80C60531E550
:10105E003170020530052BE52B7082052A020FEB4D
:01106E00225F
:08106F008F268D278A288B29AA
:10107700E4F52EF52FF530F531F52A8F2BE52624EB
:1010870002FFE433FEC3E52B9FE52A9E50727F469D
:1010970012122CAF2B121214AF271212147F421206
:1010A700122CE531AE307805C333CE33CED8F9F5FF
:1010B7002D8E2CE531AE307805C333CE33CED8F93B
:1010C7002420FFE43EFEC3E52D9FE52C9E501EE540
:1010D7002F252DFFE52E352CFEE5292FF582E52856
:1010E70012120E052DE52D70CA052C80C60531E5B7
:1010F7003170020530052BE52B7082052A0210841A
:0111070022C5
:080F35008F328D338A348B35B5
:100F3D00E53675F040A485F03BF53CE4F53DF53E16
:100F4D00F537853238E5322402FFE433FEC3E53848
:100F5D009FE5379E50727F4612122CAF3812121435
:100F6D00AF331212147F4212122CE53EAE3D7805BE
:100F7D00C333CE33CED8F9F53A8E39E53EAE3D7852
:100F8D0005C333CE33CED8F92420FFE43EFEC3E5AE
:100F9D003A9FE5399E501EE53C253AFFE53B353934
:100FAD00FEE5352FF582E53412120E053AE53A705D
:100FBD00CA053980C6053EE53E7002053D0538E59A
:080FCD003870820537020F5253
:010FD50022F9
:10125A0075BBFF438910758D15758BA0D2AFD2ABC4
:03126A00D28E22FF
:100DDF007F4612122CE4FF121214E4FF1212147A3F
:100DEF00007BDE7D017F6B120FD67A017B5E7D016A
:100DFF007F70120FD67A017BDE7D017F75120FD6C1
:100E0F007A027B5E7D017F7A120FD67A027BDE7DBE
:100E1F00017F7F120FD67A037B5E7D017F84120FD5
:100E2F00D67A037BDE7D017F89120FD67A007B1E77
:100E3F007D067F7312106F7A007B5E7D067F8712AF
:100E4F00106F7A047B5E7D0B7FE112106F7A047B4B
:100E5F009E7D127F2112106F7A047BDE7D187F61D9
:100E6F0012106F7A057B1E7D1E7FA112106F7F46B9
:0D0E7F0012122C7F101212147F2602121482
:03001B000211B21D
:1011B200C0E0C0F0C083C082C0D075D01075970067
:1011C200758D15758BA0300E1AC28EC2ABE4FF125C
:1011D200116AE4FF12116A120DDF120DDFC20ED284
:0E11E20000D28CD0D0D082D083D0F0D0E032BA
:0300000002000EED
:0C000E00787FE4F6D8FD75815602055E8F
:00000001FF
